:020000040800F2
:1000000090080024390300089F290008EF27000802
:100010009D290008A3040008A52E00080000000088
:10002000000000000000000000000000E72C0008B5
:10003000A504000800000000A1290008E92C000820
:100040005303000853030008530300085303000838
:100050005303000853030008530300085303000828
:100060005303000853030008530300085303000818
:100070005303000853030008530300085303000808
:1000800053030008530300085303000853030008F8
:1000900053030008530300085303000853030008E8
:1000A00053030008530300085303000853030008D8
:1000B00053030008530300085303000853030008C8
:1000C00053030008530300085303000853030008B8
:1000D00053030008530300085303000853030008A8
:1000E00053030008530300080000000053030008F6
:1000F0005303000853030008530300085303000888
:100100005303000853030008530300085303000877
:100110005303000853030008530300085303000867
:100120005303000853030008530300085303000857
:100130005303000853030008530300085303000847
:1001400000000000000000000000000000000000AF
:100150005303000853030008530300085303000827
:100160005303000853030008530300085303000817
:100170005303000853030008530300085303000807
:1001800053030008530300085303000853030008F7
:1001900053030008530300085303000853030008E7
:1001A00053030008530300085303000853030008D7
:1001B00053030008530300085303000853030008C7
:1001C00053030008530300085303000853030008B7
:1001D00053030008530300085303000853030008A7
:1001E0005303000853030008530300085303000897
:1001F0005303000853030008530300085303000887
:100200005303000853030008530300085303000876
:100210005303000853030008530300085303000866
:1002200053030008530300085303000800000000B4
:1002300053030008530300080000000053030008A4
:100240005303000853030008530300085303000836
:100250005303000853030008530300085303000826
:100260005303000853030008530300085303000816
:100270005303000853030008530300080000000064
:100280005303000853030008530300080000000054
:10029000000000005303000800F002F800F03CF8F2
:1002A0000AA090E8000C82448344AAF10107DA45D1
:1002B00001D100F031F8AFF2090EBAE80F0013F0E7
:1002C000010F18BFFB1A43F001031847502D00001F
:1002D000702D0000103A24BF78C878C1FAD85207B0
:1002E00024BF30C830C144BF04680C6070470000B0
:1002F0000023002400250026103A28BF78C1FBD82F
:10030000520728BF30C148BF0B6070471FB502F0CD
:100310004AFE1FBD10B510BD00F08AF81146FFF768
:10032000F5FF02F0D1FD00F0A8F803B4FFF7F2FFEB
:1003300003BC00F0AFF800000948804709480047B7
:10034000FEE7FEE7FEE7FEE7FEE7FEE7FEE7FEE785
:10035000FEE7FEE704480549054A064B70470000E2
:10036000C92D00089902000890020024900800247A
:10037000900400249004002410B5203AC0F00B80B3
:10038000B1E81850203AA0E81850B1E81850A0E899
:100390001850BFF4F5AF5FEA027C24BFB1E81850F3
:1003A000A0E8185044BF18C918C0BDE810405FEA63
:1003B000827C24BF51F8043B40F8043B08BF7047DF
:1003C000D20728BF31F8023B48BF11F8012B28BFE4
:1003D00020F8023B48BF00F8012B70474FF00002A5
:1003E00000B5134694469646203922BFA0E80C502B
:1003F000A0E80C50B1F12001BFF4F7AF090728BF06
:10040000A0E80C5048BF0CC05DF804EB890028BF81
:1004100040F8042B08BF704748BF20F8022B11F0AA
:10042000804F18BF00F8012B704770477047704726
:10043000754600F02BF8AE4605006946534620F09D
:100440000700854618B020B5FFF784FFBDE82040BF
:100450004FF000064FF000074FF000084FF0000B80
:1004600021F00701AC46ACE8C009ACE8C009ACE833
:10047000C009ACE8C0098D46704710B50446AFF31B
:1004800000802046BDE81040FFF74FBF004870478E
:100490003002002401491820ABBEFEE7260002000E
:1004A0007047FEE7704772B6FEE7000070B505685A
:1004B00000220F484FF0804308240560C0E9013254
:1004C000C0E9034242618261C26102620020094ABE
:1004D0000B5C1354401C0828FADB0549054A01F15E
:1004E000240000F049F9002800D0012070BD000070
:1004F000440000241C00002470B5056800220F4849
:100500004FF0804308240560C0E90132C0E903428E
:1005100042618261C26102620020094A0B5C13548D
:10052000401C0828FADB0549054A01F1C40000F027
:1005300023F9002800D0012070BD000044000024F1
:100540001C000024F0B503684FF6FC716D4C426B43
:10055000D3F884508D4345EA8205C3F8845003687C
:1005600053F8845F068F25F47F0545EA06451D6034
:10057000836B654D9F180268D2F888308B4343EA3D
:100580008703C2F88830026852F8883F868F23F4C8
:10059000FE0343EA06431360066856F8A03FC26BA9
:1005A0008B4307EB420243EA82033360076857F844
:1005B000A03FB0F8406023F4FE0343EA06433B60EB
:1005C000D0E9103603FB06220368D3F8B0608E43EF
:1005D00046EA8206C3F8B0600368B0F84860D3F812
:1005E000B07027F4FE0747EA0646C3F8B060D0E9CA
:1005F0001267036806FB0722D3F8AC608E4346EA15
:100600008206C3F8AC60D0E91467036806FB0722D2
:10061000D3F8F0608E4346EA8206C3F8F0600368C0
:10062000B0F85860D3F8F07027F47C1747EA064614
:10063000C3F8F0600368876D53F8C06F02EB4702A0
:100640008E4346EA820119600168B0F85C20D1F857
:10065000C03023F47C1343EA0242C1F8C020016891
:1006600090F86020D1F8C03023F07C5343EA026256
:10067000C1F8C020416B04EB8101C166826B01EBC4
:1006800082020267C36B02EBC3024267D0E91034F7
:10069000634302EB83028267D0E91234634302EBC7
:1006A0008302C267D0E91434634302EB8302C0F8CB
:1006B0008020836D02EBC303C0F88430C46D826E6A
:1006C000544303EB8403C0F88830046E544303EBB7
:1006D0008402C0F89020AA420AD9D0F89C200321B5
:1006E00042F02002C0F89C2080F898100120F0BD54
:1006F000002200E004C1D0F890308B42FAD80020EC
:10070000F0BD000000AC0040FCD30040F0B58E68A6
:100710000C69D1E9005744EA0604DFB145F0804591
:100720002C43866ED1E906C54F695E4391F82030AF
:1007300045EA0C05B1F80CC0D0F884E0002047EA87
:1007400003630C4F1D430EEB860345EA0C45E3E8BB
:1007500002450AE044EA8544E3E71418155C001DED
:10076000D4F8014045EA042410C3CC683C5D8442BF
:10077000F3D8F0BDB02F000870B5044690F898008B
:10078000022804D0D4F89C0040F008000DE0206856
:10079000D0F8C03013F07C5F0BD0D0F8C4309B028F
:1007A0000CD5D4F89C0040F40070C4F89C000120E3
:1007B00070BDD4F89C0040F02000F6E7D0F8C400EB
:1007C000C0F3044520462B46FFF7A0FF2168012017
:1007D000A840C1F8D000C4F89400002070BD00000B
:1007E0002DE9F04194B08D494C2204466846FFF74C
:1007F000C3FD64B18A4D2068A84202D100F5807023
:10080000606094F898004FF0000820B108E00120E3
:1008100014B0BDE8F081204684F8998000F002F918
:100820002068816921F01001816100F0BBFA032783
:10083000064604E000F0B6FA801B0A2811D82068AA
:1008400080690007F6D42068816941F00101816167
:1008500000F0A8FA06460DE000F0A4FA801B0A2872
:1008600008D9D4F89C0040F00100C4F89C0084F83A
:100870009870CCE720688069C007EDD02068816956
:1008800041F002018161207C01282068816937D014
:1008900041F040018161607C01282068816932D08B
:1008A00021F480418161A07C0128206881692DD0DC
:1008B00041F4805181612068A268816921F440710E
:1008C000114381612068816921F0A4018161206860
:1008D000016921F010010161E068012819D010B30D
:1008E00002281BD02068816941F080018161206865
:1008F000016941F010010161E06803280ED012E0A7
:1009000021F04001C6E741F48041CBE721F480515A
:10091000D0E72068816941F0040103E02068816923
:1009200041F020018161207E6FF0FF02D4E907735E
:10093000A68A1102400602EB0727A0F10070384397
:1009400027685B1E184301EB06463043F861A06838
:10095000B0F5407F11D104F12800A68C6FF00F0C88
:1009600089C801EB0641401E02EB032210432268B6
:100970000CEB071318430843D060206E30B1206899
:10098000626ED0F8C0101143C0F8C010D4E917123D
:100990006846D14209D02168A36E51F8C82F50F89B
:1009A000233022F007021A430A60216C49B1216802
:1009B000626C51F8BC3F50F8226023F007023243CA
:1009C0000A60A16C51B12168E36C51F8BC2F50F85A
:1009D000233022F0700242EA03120A60216D51B105
:1009E0002168626D51F8BC3F50F8220023F4E062A8
:1009F00042EA002008602068A84204D1606881684B
:100A000021F003018160C4F894800121C4F89C8026
:100A100084F898102046FFF795FDF9E6C02F0008EE
:100A200000A000402DE9F043B7B08046142130A863
:100A3000FFF7D4FCC0216846FFF7D0FC364D0026F6
:100A4000D8F800004FF08051344A0C3D314F4FF040
:100A50000208314C90424FF0090929D100201C9125
:100A60004A13CDE90020684600F0B0FA08B1FFF75C
:100A70001AFD3868401C3860012807D1206840F40E
:100A800080702060206800F480703590286840F005
:100A90000100286028684FF4C052309230A900F05D
:100AA0000100CDE931863396CDE934901C482CE025
:100AB0001C4A90422BD100201C914FF40042CDE9FA
:100AC0000020684600F082FA08B1FFF7ECFC3868B5
:100AD000401C3860012807D1206840F480702060F5
:100AE000206800F480703590286840F0020028608B
:100AF00028684FF44052309230A900F00200CDE94E
:100B000031863396CDE93490074800F029F837B0A4
:100B1000BDE8F08318000024EC44025800A0004017
:100B20000000025800A400400004025890F89810F9
:100B3000012907D0D0F89C1041F00401C0F89C10A6
:100B400001207047022180F89810002201688B690B
:100B500023F001038B61C0F89C2010467047000011
:100B60002DE9F84F03247D4D00234FF001094FF08C
:100B7000B04B4FF00F0AE9E009FA03F73A4076D09C
:100B80000E7906F00306012E01D0022E18D1D0F8FE
:100B900008C04FEA430ECE6804FA0EF82CEA080C9F
:100BA00006FA0EF646EA0C068660D0F804C00E7906
:100BB0002CEA070CC6F300169E4046EA0C06466077
:100BC0000E79F643B6070BD0C6684FEA43088F6824
:100BD00004FA08FC26EA0C0607FA08F73743C76050
:100BE0000E7906F00306022E12D1DE080F694FEAD5
:100BF000437C00EB8606B646366A4FEADC6C0AFA9E
:100C00000CF807FA0CF726EA08063743CEF82070EE
:100C10000F7906684FEA430807F0030704FA08FC57
:100C200007FA08F726EA0C06374307604E6816F401
:100C3000403F1CD04A4E376847F00207376036689D
:100C40009F0706F00206009623F0030606F1B04661
:100C5000B6463F0FD6F80864DFF808810AFA07FCA9
:100C6000404526EA0C0603D14FF0000C41E06CE051
:100C7000DFF8F4C0604502D14FF0010C39E0DFF835
:100C8000ECC0604502D14FF0020C32E0DFF8E0C06A
:100C9000604502D14FF0030C2BE0DFF8D8C060456F
:100CA00002D14FF0040C24E0DFF8CCC0604502D143
:100CB0004FF0050C1DE0DFF8C4C0604502D14FF0D5
:100CC000060C16E0DFF8B8C0604502D14FF0070C03
:100CD0000FE0DFF8B0C0604502D14FF0080C08E02B
:100CE000DFF8A4C0604502D14FF0090C01E04FF0DD
:100CF0000A0C0CFA07FC4CEA060CCEF808C44F6844
:100D0000DBF80060FF0226EA020600D516435F46C4
:100D1000CBF80060D1F804C0DBF804605FEA8C2CEB
:100D200026EA020600D516437E606E684F6826EA02
:100D30000206BF0300D516436E602E684F6826EA90
:100D40000206FF0300D516432E605B1C0A6832FAC8
:100D500003F67FF411AFBDE8F88F00008000005863
:100D6000F4440258000002580004025800080258D7
:100D7000000C0258001002580014025800180258C3
:100D8000001C025800200258002402580AB1816158
:100D900070470904FBE7000001480068000C704739
:100DA0000010005C014880687047000024000024A7
:100DB0000248816802781144816070472400002451
:100DC000032010B500F0C6F800F004FF0F4A1049E8
:100DD00014681368C4F3032203F00F038A5CC95C30
:100DE00002F01F0201F01F01D0400A4A20FA01F16F
:100DF0001160094908600F2000F010F808B10120C7
:100E000010BD00F079F8002010BD00001844025811
:100E10000C300008340000243000002470B50D4D63
:100E200004462878A0B14FF47A71B1FBF0F00A497A
:100E30000968B1FBF0F001F0C7FC48B9102C07D2EB
:100E400000222146501E00F065F800206C6070BD45
:100E5000012070BD2400002430000024154BF0B5A3
:100E6000083B427813491A600B680A1F23F00103FC
:100E70000B6043681360057BC67A827A437B2D073B
:100E8000847B45EA0665C77B90F809C0067A90F82E
:100E900000E045EAC24040EA834040EA444040EA7C
:100EA000074040EA0C2040EA460040EA0E00086095
:100EB000F0BD0000A0ED00E0BFF35F8F044800210B
:100EC0000368034A23F48033036070321160704773
:100ED00024ED00E0074A40F001000649703210603E
:100EE000086840F480300860BFF34F8FBFF36F8F06
:100EF0007047000024ED00E0054808B5016841F0A6
:100F000002010160006800F00200009008BD0000CE
:100F1000F44402580E4BF0B41B680D46C3F3022391
:100F2000C3F10706042E00D90426191D072901D292
:100F3000002300E0DB1E012404FA06F19C40491E58
:100F40002940641E994014402143F0BC01F0ABBF1E
:100F50000CED00E0064900F0070210B54FF6FF0463
:100F60000868044B204040EA02201843086010BD86
:100F70000CED00E00000FA05134970B50A68D24391
:100F8000520705D5096801F00701814213D118E025
:100F90000A6822F0070202430A60FFF703FF0A4DC6
:100FA0004FF47A760446083D07E000BFFFF7FAFEEB
:100FB000001BB04201D9012070BD2868C0438004E5
:100FC000F4D4002070BD00000C4802582DE9FE4FFB
:100FD0000546DFF8E48350F8081B0024F64FC943A8
:100FE000019005F12800264608F124080090080128
:100FF0001DD4A86E50B1B0F5801F0CD0B0F5001F05
:101000000ED0B0F5401F1ED001240FE0386840F428
:101010000030386017E00198022101F0C3FC03E0C2
:101020000098022101F04EFD04000CD026462888CD
:10103000C043C00523D4A86D05281ED2DFE800F008
:101040000C11161B1B00AA6ED8F8001021F44011D9
:101050001143C8F80010EAE7386840F400303860FF
:1010600009E00198002101F09DFC03E000980021B7
:1010700001F028FD044674B100E0012426462888CA
:10108000C043800528D4E86D80281ED00CDC90B1C8
:1010900040280ED114E0AA6DD8F8001021F0070105
:1010A0001143C8F80010EAE7C02813D0B0F5807FDC
:1010B00010D001240FE0386840F40030386009E0B7
:1010C0000198002101F06EFC03E00098002101F07E
:1010D000F9FC04469CB126462888DFF8DC92C04320
:1010E00009F12C0940052CD4D5F8A800B0F5800FE3
:1010F00020D00DDCA0B1B0F5001F0FD115E0EA6DD6
:10110000D8F8001021F4E0711143C8F80010E3E7AB
:10111000B0F5C00F13D0B0F5000F10D001240FE0D0
:10112000386840F40030386009E00198002101F08F
:1011300039FC03E00098002101F0C4FC04467CB1B6
:1011400026462888C04300052DD4D5F8AC00B0F160
:10115000007F21D00EDCA8B1B0F1807F10D116E065
:10116000D5F8A820D9F8001021F460011143C9F87E
:101170000010E6E7B0F1407F13D0B0F1806F10D0DF
:1011800001240FE0386840F40030386009E001982D
:10119000002101F007FC03E00098002101F092FC1F
:1011A000044674B126462868C04380011FD4E86C09
:1011B000D8B110280FD0202812D0302815D0012403
:1011C00014E0D5F8AC20D9F8001021F0E06111430B
:1011D000C9F80010E7E7386840F40030386004E0F0
:1011E0000198022101F0DEFB044674B126462888EE
:1011F000C043C0042BD4286EB0F5005F20D00DDCB6
:10120000A0B1B0F5805F0FD115E06B48EA6C2030DB
:10121000016821F0300111430160E8E7B0F5405F5B
:1012200013D0B0F5804F10D001240FE0386840F49F
:101230000030386009E00198002101F0B3FB03E0C1
:101240000098002101F03EFC04468CB12646288817
:10125000C043800429D4686EB0F5403F23D010DC31
:1012600008B3B0F5803F14D0B0F5003F0FD115E0C2
:101270002A6ED8F8001021F4E0411143C8F800109C
:10128000E5E7B0F5802F0ED0B0F5A02F0BD00124EC
:101290000AE00198012101F085FB03E0009801219B
:1012A00001F010FC044694B126462888C04340044F
:1012B0002AD4D5F8B000B0F1405F23D010DC08B3D9
:1012C000B0F1805F14D0B0F1005F0FD115E06A6E0D
:1012D000D8F8001021F4E0211143C8F80010E4E729
:1012E000B0F1804F0ED0B0F1A04F0BD001240AE036
:1012F0000198012101F056FB03E00098012101F063
:10130000E1FB044674B126462888C04300041FD47C
:10131000286FD8B1B0F1805F0ED0B0F1005F10D06F
:10132000012414E0D5F8B020D9F8001021F0E041F4
:101330001143C9F80010E7E7386840F4003038601E
:1013400004E00198012101F02DFB044674B126460A
:101350002868C043C0011ED4A86CD0B101280ED0AB
:10136000022811D0032814D0012413E02A6FD8F8E2
:10137000001021F040511143C8F80010E8E7386828
:1013800040F40030386004E00198022101F00AFBCB
:101390000446ACB126462868DFF81CB0C043ABF168
:1013A0001C0B400252D40548016841F48071016071
:1013B000FFF7F8FC824611E02C440258004802581E
:1013C000FA48AA6C016821F0030111430160E2E7C9
:1013D000FFF7E8FCA0EB0A00642835D8F448006861
:1013E000C005F5D58CBBDFF8C4A3B5F8B4100AF17D
:1013F000240ADAF8000001F4407100F440708842D9
:1014000011D0DAF80010DAF8002021F4407142F42B
:101410008032CAF80020DAF8002022F48032CAF8BC
:101420000020CAF80010D5F8B400B0F5807F1AD1BA
:10143000FFF7B8FC029012E0FFF7B4FC0299411AE2
:1014400041F2883081420AD9032426462878DFF801
:101450005CA3C0430AF1080AC00721D03CE0DAF8D7
:1014600000008007E8D5D5F8B410C1F301200328A7
:1014700058460DD0016821F47C510160B5F8B420C4
:10148000DAF80010C2F30B021143CAF80010DDE7CE
:10149000C84A036802EA111223F47C511143ECE7B5
:1014A000E86F182816D005DCA0B1082808D010284D
:1014B00004D10AE020280DD028280BD001240AE00E
:1014C0000198012101F06EFA03E00098012101F07A
:1014D000F9FA044664B126462878C04380071ED432
:1014E000A86F062819D2DFE800F0160C11161616A0
:1014F000EA6FDAF8001021F038011143CAF8001041
:10150000EAE70198012101F04DFA03E0009801217A
:1015100001F0D8FA04467CB100E001242646287880
:10152000C04340071FD4D5F89400062819D2DFE83D
:1015300000F0160C11161616AA6FDAF8001021F03A
:1015400007011143CAF80010E9E70198012101F0F1
:1015500029FA03E00098012101F0B4FA0446A4B18D
:1015600000E0012426462878C04380062BD4D5F815
:101570009000B0F1405F24D011DC10B3B0F1805F77
:1015800015D0B0F1005F10D116E0D5F89420D9F84D
:10159000001021F007011143C9F80010E3E7B0F192
:1015A000804F0ED0B0F1A04F0BD001240AE001987B
:1015B000002101F0F7F903E00098022101F082FA1E
:1015C000044694B126462878C04340062BD4D5F86B
:1015D0009C00B0F5406F24D011DC10B3B0F5806FE3
:1015E00015D0B0F5006F10D116E0D5F89020DAF8DC
:1015F000001021F0E0411143CAF80010E3E7B0F514
:10160000805F0ED0B0F5A05F0BD001240AE00198F6
:10161000002101F0C7F903E00098022101F052FA1D
:10162000044694B126462878C04300062BD4D5F84A
:10163000A000B0F5C04F24D011DC10B3B0F5005FAE
:1016400015D0B0F5804F10D116E0D5F89C20D9F810
:10165000001021F4E0511143C9F80010E3E7B0F5A0
:10166000004F0ED0B0F5204F0BD001240AE00198B6
:10167000002101F097F903E00098022101F022FA1D
:10168000044654B126462878C04300071ED4D5F836
:101690008400B0F5805F0AD00FE0D5F8A020D9F81B
:1016A000001021F460411143C9F80010EBE70098E5
:1016B000022101F007FA00B10126D5F88420DAF8FA
:1016C000001021F440511143CAF800102878C0439B
:1016D000C00613D4D5F89800B0F5807F05D10098E6
:1016E000022101F0EFF900B10126D5F89820D9F8D0
:1016F000001021F440711143C9F800102868C0435C
:10170000000316D4D5F8A40038B1B0F5803F09D055
:10171000B0F5003F0BD001240AE00198002101F050
:1017200041F903E00098022101F0CCF904468CB1A4
:1017300026462868C043400322D4D5F88800B0F577
:10174000801F11D0B0F5001F13D0B0F5401F15D089
:10175000012414E0D5F8A420D9F8001021F4403178
:101760001143C9F80010E4E7386840F400303860ED
:1017700004E00098012101F0A5F904465CB1264679
:101780002868C043C00323D4286DA8B1B0F5803FBA
:1017900017D001241BE0D5F88820DAF8001021F4D6
:1017A00040111143CAF80010EAE700004C44025807
:1017B00000480258CFFFFF00386840F4003038601E
:1017C00004E00198022101F0EDF80446E4B1264658
:1017D0002868C043800005D40098022101F072F906
:1017E00000B101262868C04380031BD4D5F88000CF
:1017F000B0B1B0F5807F0FD0B0F5007F10D0B0F55C
:10180000407F0DD001240CE05A482A6D016821F474
:10181000803111430160DBE7386840F40030386004
:10182000ECB326462868C043C00207D46A6FD8F8D4
:10183000001021F000411143C8F800102868C0438F
:10184000C00008D4D5F8B820DBF8001021F480419E
:101850001143CBF800102868C043800207D4EA6E19
:10186000D8F8001021F080711143C8F800102868E2
:10187000C04340000CD4DBF8001021F40041CBF849
:101880000010DBF80010D5F8BC201143CBF8001095
:101890002868C04308D437486A6D016800E018E042
:1018A00021F04051114301602868C043000208D470
:1018B000D5F88C20DAF8001021F440011143CAF861
:1018C000001028790024C04300F0010020430AD012
:1018D0000FE0D5F88020DAF8001021F440711143B0
:1018E000CAF800109EE70198002101F05BF800B1F2
:1018F00006462879C04300F00200204305D1019834
:10190000012101F04FF800B106462879C04300F0EC
:101910000400204305D10198022101F043F800B1F1
:1019200006462879C04300F00800204305D10098FE
:10193000002101F0C7F800B106462879C04300F045
:101940001000204305D10098012101F0BBF800B13F
:1019500006462879C04300F02000044304D10098D3
:10196000022101F0AFF800B916B10120BDE8FE8FE9
:101970000020FBE74C4402582DE9F05F04000F46BD
:101980007ED0DFF83882D8F8000000F00F00B842AF
:101990000CD2D8F8001021F00F013943C8F800101C
:1019A000D8F8000000F00F00B84269D12078844DCB
:1019B00040070AD52069296801F07001884204D9DE
:1019C000296821F070010143296020787C4E361D82
:1019D00000070AD56069316801F07001884204D9B6
:1019E000316821F07001014331602078C0060AD5CA
:1019F000A069316801F4E061884204D9316821F4BA
:101A0000E061014331602078DFF8B4B180060BF16A
:101A1000080B0CD5E1695846DBF8002002F0700293
:101A2000914204D9026822F070020A4302602078D1
:101A300080070AD5E068296801F00F01884204D9BF
:101A4000296821F00F01014329602078C0073ED0AA
:101A50005B49A2682868183920F470601043286038
:101A60006068022818D0032819D00968012819D005
:101A7000490700294ADADFF848A1AAF1080A00E07C
:101A800044E0DAF8002022F007020243CAF80020FE
:101A9000FFF788F9814612E009688903E9E70968D8
:101AA0008901E6E7C905E4E7FFF77CF9A0EB090146
:101AB00041F28830814202D90320BDE8F09F61687D
:101AC000DAF8000000F03800B0EBC10FECD120785C
:101AD00080070AD5E068296801F00F01884204D226
:101AE000296821F00F0101432960D8F80010404611
:101AF00001F00F01B9420BD9016821F00F01394300
:101B00000160006800F00F00B84201D00120D4E766
:101B1000207840070AD52069296801F070018842C1
:101B200004D2296821F07001014329602078000760
:101B30000AD56069316801F07001884204D23168C9
:101B400021F07001014331602078C0060AD5A069F8
:101B5000316801F4E061884204D2316821F4E06127
:101B600001433160207880060CD5E1695846DBF8E6
:101B7000002002F07002914204D2026822F070024A
:101B80000A43026000F026F80E492A682B68C2F367
:101B9000032203F00F038A5CC95C02F01F0201F00C
:101BA0001F01D040084A20FA01F11160074908607E
:101BB00007480068BDE8F05FFFF730B90020005229
:101BC000184402580C30000834000024300000246F
:101BD00028000024454970B545480968434B103B2F
:101BE00011F0380208D00111082A03D0102A0BD0B6
:101BF000182A0BD0084670BD19688906FBD51968EC
:101C0000C1F3C101C84070BD3A4870BD3749374D76
:101C100018310C1D24350A68096826682D6802F001
:101C2000030406F00102C1F30511C5F3CC0515FB51
:101C300002F200EE102AB8EE400AE9B32F4ADFEDB7
:101C40002E0AB7EE001A6CB1DFED2D1A012C01D06F
:101C5000022C43D002EE101A1068F8EE422A81EEF0
:101C6000A22A1EE01C68A40611D51B6801EE901A7A
:101C70001168C3F3C103F8EE612AD84001EE900A5F
:101C8000C1F30800F8EE611A81EEA22A0BE001EE22
:101C9000901ADFED1C2A00BFF8EE611A106882EE80
:101CA000A12AC0F3080001EE900AF8EE611A40EE96
:101CB000201A31EE810A00E015E022EE000A1068D9
:101CC000C0F34620401C00EE900AF8EE600A80EE59
:101CD000201ABCEEC10A10EE100A70BD01EE901A77
:101CE000DFED092AD8E7002070BD0000104402583B
:101CF0000090D00340787D01000000393044025844
:101D00000024744A0024744C20BCBE4B2DE9F05FC3
:101D100004007DD0FF4F2078FE4D1837DFF8F49394
:101D2000103DC00748D0D9F80000396800F03800ED
:101D3000102815D0182803D101F0030002280FD075
:101D40006068B0F5803F12D010B1B0F5A02F18D068
:101D5000286820F480302860286820F4802009E07A
:101D60002868800328D560680028D2D024E028683D
:101D700040F480302860606888B1FFF713F80646A9
:101D800009E0286840F480202860F0E7FFF70AF8AF
:101D9000801B64286FD828688003F7D50CE0FFF714
:101DA00001F8064605E000BFFEF7FCFF801B642833
:101DB000F0D828688003F7D4207841F20308D54E84
:101DC0000C3E800769D5D9F80000396810F038005A
:101DD0000ED0182801D188070AD0E06890B329688E
:101DE00021F0190101432960FEF7DCFF824631E052
:101DF0002868400702D5E06800288AD0E168286892
:101E000020F0190008432860FEF7CCFF824607E067
:101E1000DFE000BFFEF7C6FFA0EB0A000228B9D83A
:101E200028684007F6D500BFFEF7B6FF40451BD82F
:101E30002069402812D0316821F47C3141EA003019
:101E400030602AE018E000BFFEF7ACFFA0EB0A000C
:101E500002289FD828684007F6D5E5E7306820F4C7
:101E60007C3040F40030EBE7207C316821F0FE410B
:101E700041EA0060E4E70DE1286820F001002860F5
:101E8000FEF790FF824605E0FEF78CFFA0EB0A000C
:101E900002288DD828684007F6D42078C0065DD582
:101EA000D9F80000DFF86CB2396800F03800ABF107
:101EB000040B082810D0182803D101F003000128D2
:101EC0000AD0E0690028286838D040F080002860F7
:101ED000FEF768FF824623E02868C00523D5E06945
:101EE000802876D11FE0206A202821D0316821F097
:101EF000F84141EA8060306030E000BF94F8201083
:101F0000DBF8002022F07C5242EA0161CBF800109D
:101F100024E000BFFEF746FFA0EB0A00022898D895
:101F20002868C005F6D5FEF737FF4045E6D8DAE762
:101F3000306820F0F84040F08040DCE720F080007E
:101F40002860FEF72FFF064605E000BFFEF72AFFD8
:101F5000801B02289DD82868C005F7D42078000788
:101F600029D56C486169643000298046016811D028
:101F700041F001010160FEF715FF064605E000BFD4
:101F8000FEF710FF801B0228C9D8D8F80000800790
:101F9000F6D510E021F001010160FEF703FF0646CF
:101FA00005E000BFFEF7FEFE801B022872D8D8F8BD
:101FB00000008007F6D42078800623D5A069002889
:101FC000286810D040F480502860FEF7EBFE0646EB
:101FD00005E036E1FEF7E6FE801B02285AD82868A5
:101FE0008004F7D50EE020F480502860FEF7DAFE7A
:101FF000064604E0FEF7D6FE801B02284AD8286871
:102000008004F7D4207840074FD5DFF80C81D8F84A
:10201000001041F48071C8F80010FEF7C3FE0646B8
:1020200005E000BFFEF7BEFE801B642832D8D8F85A
:102030000000C005F6D5374EA068603601280AD0EA
:1020400008B1052813D0306820F0010030603068F6
:1020500020F0040002E0306840F001003060A06829
:1020600041F2883A90B1FEF79DFE80460AE0306862
:1020700040F004003060EEE7FEF794FEA0EB0801AC
:10208000514507D830688007F6D50EE0FEF78AFE86
:10209000804607E084E000BFFEF784FEA0EB080165
:1020A00051457DD830688007F6D4606AB0B3DFF858
:1020B0006480D9F8001008F120084FF6F87B08F189
:1020C0000409C1F3C2010329A8F1040A69D0022856
:1020D000286820F08070286003D0FEF763FE044675
:1020E00084E0FEF75FFE064605E000BFFEF75AFEFD
:1020F000801B022877D828688001F7D4E26A40F272
:10210000F331386854F8283F884340EA02101843F6
:10211000386004E01044025800480258B5E0217BC2
:10212000434622894FF4FE0C208A4FF0FE474902B5
:10213000267D521E401EA1F50071C2F308088AB226
:10214000761E0CEA004042EA08020243504607EAC3
:1021500006610A431A60DAF8002022F00102CAF888
:102160000020D9F80020266A22EA0B0242EAC602C1
:10217000C9F80020DAF80010A26921F00C0111431F
:10218000CAF800100168E26921F002011143016000
:10219000016841F480310160016841F4003101E0DF
:1021A00021E027E00160016841F4802101600168BD
:1021B00041F001010160286840F080702860FEF75E
:1021C000F1FD044605E000BFFEF7ECFD001B022810
:1021D00009D828688001F7D557E000BFFEF7E2FD77
:1021E000001B022802D90320BDE8F09F2868800167
:1021F000F4D44AE039680128D8F8000021D0A26A56
:1022000001F0030393421CD1E26AC1F305118A4233
:1022100017D1216BC0F30802491E8A4211D1616BAC
:10222000C0F34622491E91420BD1A16BC0F3064276
:10223000491E914205D1E16BC0F30660491E8142FF
:1022400001D00120D0E7A16C4E46D9F80000C0F3C0
:10225000CC00814219D0DAF80000554620F0010088
:10226000CAF80000FEF79EFD4FEA0007FEF79AFD50
:10227000B842FBD0A26C306820EA0B0040EAC200F2
:102280003060286840F0010028600020ACE70000C2
:102290002DE9F047040029D0594A4FF00009206881
:1022A000584B594D9042C4F8289006D0984204D01B
:1022B000A84202D0E1680F2918D8E1684FF0010A5E
:1022C000E76B0831C9080AEB57167143904205D0F5
:1022D000984203D0A84201D0082907D8904203D0E1
:1022E000984201D0A84204D1102902D90120BDE8AA
:1022F000F08794F8810020B9204684F8809000F09F
:1023000085F8022084F881002068016821F001012D
:1023100001602068A1698268B1F1806F02F4F81150
:1023200010D16268B2F5800F01D01AB10AE0A26B39
:1023300022B107E0A26BB2F1805F03D1026842F4E0
:10234000805202606068400209D5E068072806D321
:102350002068236D026822F480721A4303E020682B
:10236000026822F480720260A66AE069E26B256866
:102370003043E3680A4310431843A860D4E90D02D0
:10238000D4E90581636A25691843D4F820C00A435B
:10239000266810432843A56DD4E90172D4E91231AF
:1023A00040EA080040EA0C00384308431043184351
:1023B0002843F060606868B92068816821F4C051E2
:1023C00041F4006181602068816821F4C06141F4BA
:1023D000806181602068016D21F001010165606804
:1023E000400206D52068626DC16821F000411143AA
:1023F000C160C4F8849084F881A0002077E70000D1
:102400000030014000380040003C004010B5B6B03C
:102410000446142130A8FDF7E1FFC0216846FDF70E
:10242000DDFF1849206888422AD1811400201890C5
:102430000446CDE900106846FEF7C8FD08B1FEF776
:1024400032F81148016841F480510160006800F4DD
:10245000805035900C481038016841F0010101604E
:10246000006830AB022100F001003590E020052229
:1024700083E81300054830A9CDE93342FEF770FB2D
:1024800036B010BD00300140F04402580000025840
:102490002DE9FF4F0446C06B81B01D461746400929
:1024A000401C1FFA80FBFEF77DFC824694F88100F9
:1024B0002E46012835D1029800287CD0002FFCD070
:1024C000002DFAD094F8800001282AD04FF001099D
:1024D00084F8809005224FF0000884F88120C4F829
:1024E00084806766A4F86A50A4F868500299E16590
:1024F000A4F86250A4F86050C4F87080C4F87480E6
:102500002068C16821F4C021C160AC4920688842BC
:1025100005D0AB49884202D0AA49884205D110278C
:1025200004E0022005B0BDE8F08F082741686FF392
:102530000F01294341602068016841F001010160F9
:102540006068B0F5800F04D12068016841F4007123
:102550000160E0680F284CD9BF0838E02068416965
:10256000890710D57EB1F119A9420CD9E16D09682E
:102570000162E06D001DE065B4F86200401EA4F841
:102580006200B4F862602068416905B34269D2070D
:1025900003D15D4510D209040ED5006B616E086051
:1025A000606E001D6066B4F86A00401EA4F86A0000
:1025B000B4F86A500BE0EEE0FEF7F4FBA0EB0A0182
:1025C0000E98814202D3401C01D004E018B156EAB3
:1025D0000500C3D1C6E0204600F004FBD4F8840017
:1025E00084F8808040F48070C4F8840084F881907E
:1025F000E0E0072879D97F084BE020684169890726
:1026000010D57EB1F119A9420CD9E16D0988018478
:10261000E06D801CE065B4F86200401EA4F8620022
:10262000B4F86260206841691DB34269D20709D0DD
:10263000008E616E0880606E801C6066B4F86A006F
:10264000401E12E05D4515D20A0413D5008E616E5E
:102650000880606E801C60662168098E0180606E53
:10266000801C6066B4F86A00801EA4F86A00B4F8A2
:102670006A500EE0012D01D18904D9D4FEF792FBF6
:10268000A0EB0A010E98814202D3401C01D084E0E5
:1026900060B356EA0500B0D164E02068416989075B
:1026A00011D586B1F119A9420DD9E16D097880F8EB
:1026B0002010E06D401CE065B4F86200401EA4F8F4
:1026C0006200B4F862602068416975B14269D2075E
:1026D0000DD000BF90F83000616E0870606E401C35
:1026E0006066B4F86A00401E24E038E055E05D45BD
:1026F00025D20A0423D590F83000616E0870606E10
:10270000401C6066216891F830100170606E401CBA
:102710006066216891F830100170606E401C606640
:10272000216891F830100170606E401C6066B4F84A
:102730006A00001FA4F86A00B4F86A500FE0042D84
:1027400002D211F4C04FC5D1FEF72CFBA0EB0A0159
:102750000E98814202D3401C01D01EE0E8B156EA37
:1027600005009AD10E9B002208212046CDF800A03A
:1027700000F096FA28B1D4F8840040F02000C4F8A4
:102780008400204600F02EFA84F88190D4F884105A
:1027900084F8808081B10120C4E6204600F022FA4E
:1027A000D4F8842084F8808042F48072C4F88420B5
:1027B00084F881900320B5E60020B3E600300140A4
:1027C00000380040003C0040401EB0F1807F10B552
:1027D00001D3012010BD4FF0E02460610F2160178C
:1027E00000F061FB0020A0610721216110BDFEE720
:1027F0001948002170B5174C0F2581600122046033
:102800000526C16008240174042341748174466163
:10281000C0E90625C0E9084282622024C262C0E9FC
:102820000C2181631022C0E90F14C0E91131C0E905
:102830001331C0E91531C0E91712C0E91913FDF7CA
:10284000CFFF08B1FDF72FFEBDE870400248FEF74C
:102850006DB9000000A00040680000241948002164
:1028600070B5174C0F258160012204600526C160F8
:10287000082401740423417481744661C0E906256B
:10288000C0E9084282622024C262C0E90C2181634F
:102890001022C0E90F14C0E91131C0E91331C0E9B9
:1028A0001531C0E91712C0E91913FDF799FF08B1F6
:1028B000FDF7F9FDBDE870400248FEF737B90000AA
:1028C00000A400400801002430B587B014216846F8
:1028D000FDF784FD1A48016841F0040101600168B8
:1028E00001F004010591016841F080010160016877
:1028F00001F080010591016841F00101016001686A
:1029000001F001010591016841F0020101600068D8
:102910004FF440640B4D002200F002002146059068
:102920002846FEF733FA002100940120CDE9010189
:10293000284603916946FEF713F907B030BD000041
:10294000E04402580008025813480021072310B53C
:10295000104C4FF08062C0E90041C0E902130161F0
:10296000C0E90512016241628162C1624163816313
:10297000C163016441648164C1640165416581652D
:10298000FFF786FC002803D0BDE81040FDF78BBDA3
:1029900010BD000000300140A8010024FEE7FEE762
:1029A000704700002DE9F047454D044689464FF039
:1029B000000A2868C04380070AD0414E283E30688C
:1029C00020F080603060FEF7EDF90746B04608E081
:1029D0000120BDE8F08700BFFEF7E4F9C01B022824
:1029E00067D8D8F800000001F6D4206829684FF4B1
:1029F000FE0721F47C313E0241EA00302860207A53
:102A0000A389B4F804C040022D4D2D495B1E227CE1
:102A1000ACF1010C1035091DA0F5007080B2521EFA
:102A2000CCF3080C07EA034340EA0C00184306EA1B
:102A30000262104328600868626920F0C0001043F9
:102A400008600A68A06922F0200202430A60281D7B
:102A50000A6822F010020A6002684FF6F873E4690F
:102A60009A4342EAC40202600868B9F1000F40F0DC
:102A700010020A6011D00868B9F1010F11D040F4BA
:102A800000100860D8F80000444640F08060C8F8A4
:102A90000000FEF787F905460DE0086840F40020C5
:102AA000EFE740F48010ECE7FEF77CF9401B0228CA
:102AB00001D903208DE720680001F5D5504688E74D
:102AC000284402582DE9F047454D044689464FF009
:102AD000000A2868C04380070AD0414E283E30686B
:102AE00020F080503060FEF75DF90746B04608E000
:102AF0000120BDE8F08700BFFEF754F9C01B022893
:102B000067D8D8F800008000F6D4208829684FF4F0
:102B1000FE0721F07C713E0241EA00502860207AD5
:102B2000A389B4F804C040022D4D2D495B1E227CC0
:102B3000ACF1010C1835091DA0F5007080B2521ED1
:102B4000CCF3080C07EA034340EA0C00184306EAFA
:102B50000262104328600868626920F440601043F4
:102B600008600A68A06922F4007202430A60281D06
:102B70000A6822F480720A6002684FF6F873E4690A
:102B80009A4342EAC40202600868B9F1000F40F4B7
:102B900080720A6011D00868B9F1010F11D040F0BD
:102BA00080700860D8F80000444640F08050C8F8B3
:102BB0000000FEF7F7F805460DE0086840F48000D5
:102BC000EFE740F40000ECE7FEF7ECF8401B0228CA
:102BD00001D903208DE720688000F5D5504688E7AD
:102BE0002844025810B5026840F26F335169946965
:102BF00044F0080494610268946944F010049461FC
:102C00000268146824F001041460026814699C438B
:102C100014610268936823F44043936090F8812024
:102C2000042A0CD08A060AD5D0F8842042F080020B
:102C3000C0F884200268936943F02003936190F800
:102C40008120032A0CD04A060AD5D0F8842042F00D
:102C50000402C0F884200268936943F04003936142
:102C60008A050AD5D0F8842042F00102C0F88420F9
:102C70000268936943F400739361C9050AD5D0F8DB
:102C8000841041F00801C0F8841001688A6942F498
:102C900080728A610021A0F86210A0F86A1010BD4D
:102CA0002DE9F0411C4616460D460746DDF8188012
:102CB0000AE000BFFEF776F8A0EB0800A04202D3BE
:102CC000601C01D00BE054B13868406935EA00005F
:102CD00007D00020B042EDD00020BDE8F0810320F5
:102CE000FBE70120F6E77047FEF762B870B59CB0CD
:102CF0004C216846FDF772FB202113A8FDF76EFBFF
:102D00000220FEF739F92D4900242D480A6822F0E7
:102D100001020A600A68026842F4404202600268E6
:102D200002F440421B9202689204FCD5254A1368C3
:102D300043F002031360126802F002021B92026861
:102D400042F44042026002680A6842F001020A60EE
:102D5000096801F001011B9101688904FCD50DF19E
:102D6000280C0825022009900523C0268CE849007C
:102D7000CDE90D05C2030F9001216846CDE910543D
:102D8000CDE900121294FEF7C1FF08B172B6FEE75A
:102D900040201A903F210301CDE916500322CDE9CE
:102DA000180313AB13A883E816000421FEF7E4FD13
:102DB000002801D072B6FEE71CB070BD2C0400588C
:102DC00018480258F44402582C48F0B52C4A0168BF
:102DD00041F470010160106800F00F00072804D270
:102DE000106820F00F00C01D106026490020254CFF
:102DF00010340B68244D43F001030B6020600B6816
:102E00002B400B60136803F00F03072B04D91368E2
:102E100023F00F03DB1D13601A4C1C4A18341C4BA3
:102E2000261D371D2060174C1A4D28343060261D92
:102E30003860371D23603B1D35601C1D3A60251D21
:102E40002E1D1860331D22602860326018600A68E9
:102E50000C4B114C22F4802260330A601860206809
:102E60006FF30F00B0F1005F03D20C490120C1F8ED
:102E7000080143F2D2000A490860F0BD88ED00E085
:102E800000200052004402587FEDF6EA8002010162
:102E9000000202020000FF010010005C00800051EF
:102EA00000400052FEE7090700284FEA116104DBE9
:102EB00000F1E02080F80014704700F00F0000F1EE
:102EC000E02080F8141D70471FB500240094019481
:102ED00002940394FDF7F0FF01208DF80C001F21F0
:102EE0008DF8081087228DF809208DF80D008DF8D7
:102EF000000068468DF80A408DF80E408DF80140BC
:102F000001948DF80B408DF80F40FDF7A7FF0420CA
:102F1000FDF7E0FFFDF754FFFFF7E8FEFFF7D4FCF5
:102F2000FFF79CFCFFF764FCFFF70EFD124D4FF618
:102F3000FF76114A0C23114911480096FFF7A8FAB1
:102F40000E4A0D48083A111F00F01CF8E8780009F5
:102F500005280FD2DFE800F00E0309030900074936
:102F60000839081FFDF7A2FA04E004490839081FD0
:102F7000FDF7C2FAEC70DCE7380000240C000024F6
:102F8000A8010024002310B5C3F10304045DCC5450
:102F90005B1C042BF8DB002143181B795354491C9C
:102FA0000829F9DB10BD4FF04070E1EE100A7047C0
:102FB0000001020304050607080C10141820304015
:102FC0000000000000000000000000000000000001
:102FD00000000000010000000200000003000000EB
:102FE00004000000000000000500000000000000D8
:102FF00000000000000000000600000000000000CB
:1030000000000000000000000700000000000000B9
:103010000102030401020304060708093C3000080A
:103020000000002438000000D402000874300008BA
:103030003800002458080000F002000800000000DA
:10304000000000000000000001020304050607085C
:10305000090A0B0C00000000000000000000000046
:103060000100000010000000000000000090D003EC
:043070000090D003F9
:040000050800029954
:00000001FF
